:020000040800F2
:10000000000400200102000821080008210800085F
:10001000210800082108000821080008210800081C
:1000200021080008210800082108000881050008AF
:1000300021080008210800082108000821080008FC
:1000400021080008210800082108000821080008EC
:1000500021080008210800082108000821080008DC
:1000600021080008210800082108000821080008CC
:1000700021080008210800082108000821080008BC
:1000800021080008210800082108000821080008AC
:10009000210800082108000821080008210800089C
:1000A000210800082108000821080008210800088C
:1000B000E1040008210800082108000821080008C0
:1000C000210800082108000821080008210800086C
:1000D00021080008810600082108000821080008FE
:1000E000210800082108000821080008210800084C
:1000F000210800082108000821080008210800083C
:10010000210800082108000821080008210800082B
:10011000210800082108000821080008210800081B
:10012000210800082108000821080008210800080B
:1001300021080008210800082108000821080008FB
:1001400021080008210800082108000821080008EB
:1001500021080008210800082108000821080008DB
:1001600021080008210800082108000821080008CB
:1001700021080008210800082108000821080008BB
:1001800021080008210800082108000821080008AB
:10019000210800082108000821080008210800089B
:1001A000000000000000000000000000000000004F
:1001B000000000000000000000000000000000003F
:1001C000000000000000000000000000000000002F
:1001D000000000000000000000000000000000001F
:1001E000000000000000000000000000000000000F
:1001F00000000000000000000000000000000000FF
:1002000072B6264880F30988022080F31488BFF371
:100210006F8F00F0E5FF00F00BFF21482149224AD3
:1002200091423CBF41F8040BFFF7FABF1F491B4A3C
:1002300091423CBF41F8040BFFF7FABF1C491D4A2D
:100240001D4B9A423EBF51F8040B42F8040BFFF7D6
:10025000F8BF002019491A4A91423CBF41F8040BEB
:10026000FFF7FABF00F07CFF00F0B2FF154C164D0F
:10027000AC4280F2058054F8041B8847FFF7F8BFB2
:1002800000F096FC114C124DAC4280F2058054F8FF
:10029000041B8847FFF7F8BF00F092BF000800205A
:1002A0005555555500000020000400200004002092
:1002B000B8120008000800200008002000080020F4
:1002C000F8090020000200080002000800020008EF
:1002D0000002000800000000000000000000000014
:1002E0002DE9F04FC1F80CD0C3689D46BDE8F08FF2
:1002F000002383F311882846A047002000F0E8FE81
:1003000000F00EFF00DFFEE700000000000000002C
:10031000FEE700BFAFF30080AFF30080AFF30080D3
:10032000202383F31188094A0949136809680730B3
:1003300020F00700C91A88429BBFC0181060002037
:100340001846002383F31188704700BF80080020FF
:1003500000080020AFF30080AFF30080AFF300800F
:10036000024B1A6842F080021A6070470038014060
:1003700010B4202383F31188037F072B0ED8DFE806
:1003800003F0270D0D2308040D08036A9A68013253
:100390009A6090E80C001A60026853604FF0FF34D6
:1003A000002281680D4B046202771B689A688A42BA
:1003B000FBD25A684260036000211060586081F3EC
:1003C00011885DF8044B7047036A00221A60E5E764
:1003D000002383F311885DF8044B7047A8080020C0
:1003E000014B5B6883607047001000E0AFF3008052
:1003F0000121F0B41E4B0F4600220F25032624E0F6
:10040000D3F820C02CEA04041C625C6807FA02FCE2
:1004100024EA0C045C605400D3F808C006FA04F423
:10042000E44304EA0C0CC3F808C0D3F80CC004EA97
:100430000C0CC3F80CC0D3F800C004EA0C040C4345
:100440001C60400811D08900013202F00704A400AA
:1004500010F0010F05FA04F4F3D0072AD0D9D3F82D
:1004600024C02CEA04045C62CFE7F0BC704700BFF4
:10047000000C0048AFF30080AFF30080AFF30080C2
:10048000202383F311880F4B5B6813F4006302D1C0
:1004900083F311887047EFF309834FF0807243F8BC
:1004A000042CA3F1200282F30988074A116892699B
:1004B0008968926891428CBF044A054A43F8082C27
:1004C000704700BF00ED00E0A8080020010300080D
:1004D00004030008AFF30080AFF30080AFF30080A7
:1004E0002DE9F0414FF080452B699B0703D4BDE80F
:1004F000F041FFF7C5BF00272F61202686F3118842
:100500001D4C6A6AE369A06A9968C0EB020C8C45CD
:1005100038BF04F11C071DD3B84604F11C071A6844
:10052000D3F80CC00144BA42A1625760E261C3F83B
:100530000C8008BFC5F80C8088F311881869E04763
:1005400086F31188E3696A6AA06A9968C0EB020CB5
:100550006145E4D9BB4208D00144891A012998BFFA
:1005600002214FF080430A445A63002383F3118829
:10057000BDE8F041FFF784BFA8080020AFF300807A
:10058000EFF30983203383F30988002383F3118871
:10059000704700BFAFF30080AFF30080AFF300807F
:1005A0000E4A0F4B5168F0B486681F6F4468C568E7
:1005B000D0E90423891BC91B521843F10003C0E989
:1005C000042303688160A14205F1010588BF4160F1
:1005D0009942C56038BF0160F0BC7047001000E070
:1005E000A8080020AFF30080AFF30080AFF30080D5
:1005F00000228168084B10B4044602771B689A6891
:100600008A42FBD25A6862602360204614605C60B4
:100610005DF8044B704700BFA8080020AFF30080CE
:10062000F8B50468A04207460D461FD0002602E038
:100630002468A7421AD0E3682B43E36015B122690E
:100640001342F5D06068A268016B037F0A430A2B4E
:1006500002630CD00B2BEBD1036A1A409342E7D113
:100660000662FFF7C5FF2468A742E4D1F8BD036A1C
:100670001A42DDD00662FFF7BBFFF4E7AFF300805C
:100680002DE9F041634D6E6F3768F46934622207DB
:1006900054D1E30546D4A00618D4390601D5220664
:1006A00067D463060ED5202383F311886A6CAB6C84
:1006B00058489A4200F0898027F0400737600023AD
:1006C00083F31188BDE8F041FFF7DABE202383F3FE
:1006D0001188B28C6B695FFA82F8002B7ED02B6A8E
:1006E0006A6A4C4893427ED068694A4A591C013074
:1006F0002962686183F80080296AEB69994261D2B6
:100700004449EB6801F10C02934207D01868C860B5
:100710000021426018461962FFF76AFF002383F345
:100720001188BAE7202383F311883B484FF4007106
:10073000FFF776FF002383F31188ACE714F0080F6E
:1007400014BF80210021E30748BF41F02001A0072A
:1007500048BF41F04001620748BF41F48071202347
:1007600083F311882C48FFF75BFF002383F3118884
:100770008FE7202383F31188AB6C6A6C25489A427B
:100780003AD0AA6B2348511CA963296C5A1CAA644D
:100790008A4293F8008001D3C36B83641D492B6B9D
:1007A00001F13002934207D01868086300214260CB
:1007B00018461962FFF71CFFA6F82880002383F370
:1007C00011886EE7936913629AE7836B002B3FF4FD
:1007D00073AF04301021FFF723FF6DE70E480421AB
:1007E000FFF71EFF7BE74269002A3FF47DAF04302C
:1007F0008021FFF715FF91E7826B002AC1D00430FA
:100800000821FFF70DFF27F0C00343F040033360DA
:10081000D4E700BF0408002008080020AFF30080E0
:10082000FEE700BFAFF30080AFF30080AFF30080BE
:10083000074B30B41A68996914680877012563601A
:1008400015771C60104630BC9A61FFF749BD00BFA8
:10085000A8080020AFF30080AFF30080AFF3008062
:10086000F0B587B0002968D03F4C4368A26982E8A0
:1008700009001A604B1C426042D02546012955F8F8
:100880001C3F3A4805924FF0804708BF0221AB4217
:100890007A6A049054D0A66A986811448A1B8242EE
:1008A00038BF7963824204D91B68121A9868904253
:1008B000FAD35968029101AE01930E605E60039213
:1008C00099684FF0FF308A1A9A6060620420FFF73F
:1008D000AFFF049B83B1E369234AB34214D0029A69
:1008E000019B1360019B0021AB425A60049103D02D
:1008F0009968039A0A449A60A369186A07B0F0BD20
:100900000420FFF795FFF7E7019BD3610021AB427D
:100910005D60049124D09968039D906A6A184FF035
:1009200080419A604B6A181A8242E5D9121A012A4C
:1009300098BF022213444B63DEE74FF0FF30DDE740
:1009400001AE88184FF0000E022301950295039125
:10095000A2627863E661C7F810E02662FB60B5E743
:100960004FF08043D960C7E7A80800207103000852
:1009700070B520230E46044683F31188C3692BB15A
:10098000984703E0FFF76CFF002816DBA5682046B8
:100990003146002DF6D0A269A0682169531C8B4214
:1009A00000F1FF30A361A06028BFE368107828BF82
:1009B000A361002383F3118870BD85F3118870BD96
:1009C0000C30FFF7D5BF00BFAFF30080AFF300805E
:1009D0000C304FF0FF31FFF7CBBF00BFAFF300800B
:1009E0002DE9F84F04461D46D0F81C804FF0200B2F
:1009F0008BF31188002601EB020A01F10109B8F11D
:100A0000000F05D02046C04702E0FFF729FFF8B9E4
:100A1000A76820462946002FF7D0A369A1685A1C71
:100A20000139A261A1601B7809F8013C2369A26920
:100A30009A4224BFE368A361002383F31188D14560
:100A400006F1010606D08BF3118809F10109D6E7FA
:100A500087F311883046BDE8F88F00BFAFF3008000
:100A60000C30FFF7BDBF00BFAFF30080AFF30080D5
:100A70000C304FF0FF33FFF7B3BF00BFAFF3008080
:100A8000F8B504460F461646202383F3118803E089
:100A9000FFF7E6FE002819DBA56820463146002D49
:100AA000F6D06369A1685A1C01396261A1601F70A8
:100AB000236962699A4224BFE3686361E3690BB109
:100AC00020469847002080F31188F8BD85F31188EF
:100AD000F8BD00BFAFF30080AFF30080AFF300803C
:100AE0003030FFF7CDBF00BFAFF30080AFF3008021
:100AF00030304FF0FF32FFF7C3BF00BFAFF30080CD
:100B00002DE9F04F83B004460D4616460193D0F808
:100B10001C804FF0200A8AF311880027B946A36889
:100B200005F1010B204603B36369A1684A1E591CF5
:100B30006161A2602978197023696169994224BFB3
:100B4000E3686361B8F1000F00D0C04789F31188F2
:100B5000013E07F1010712D08AF31188A3685D46B0
:100B600005F1010B2046002BDED1204601990093B0
:100B7000FFF776FE009B0028D1D083F3118838461A
:100B800003B0BDE8F08F00BFAFF30080AFF300808B
:100B90003030FFF7B5BF00BFAFF30080AFF3008088
:100BA00030304FF0FF33FFF7ABBF00BFAFF3008033
:100BB000BD4BBE489A6A4FF0FF3100222DE98048B4
:100BC00099629A621C6919611A61DC68D960DA60FD
:100BD000D96941F08051D961016841F480710160A7
:100BE000196A01F44071B1F5007F87B003D04FF46A
:100BF000803119621A62AC4B1A6A120407D41A6A5D
:100C000042F400721A621A6A42F400421A62DFF871
:100C100098E2A74CDEF81870DFF8E0B2DFF8E0A247
:100C2000DFF8E092A34EDFF8E082A34BA34DA44887
:100C3000A449A54A47F00107CEF81870276847F085
:100C400020072760DEF814404FF0904744F4FC047E
:100C5000CEF8144000247C60C7F808B0C7F80CA098
:100C60004FF6FF7AC7F814A0C7F820904FF46E290A
:100C7000C7F82490C7F800804FF0C0094FF2C007B2
:100C8000C6F80490B760914FF7604FF088484AF279
:100C90008007C6F814A09C46C6F820804FF0704B21
:100CA0007462DFF8688237604FF05537884E6C60A9
:100CB000C5F808B0C5F80C80DFF854B2C5F814A028
:100CC0004FF0FF082C626C622C604460814D8460A0
:100CD000C760C0F814A00F270462446204604C602F
:100CE0007D488E607D4EC1F80CB0C1F814800C6256
:100CF000DFF820824C620D6054609760D06003F191
:100D00007407C2F814A01462546214604CF8046BA7
:100D100003F16402012603F15400102103F10C0ACF
:100D200003F130051F64DFF8F0B15C61202799639F
:100D30009C62C3F804C01E72C3F80CA0C3F810A0D4
:100D4000986158621862DA61DA639A645A641D63C2
:100D50005D63DB62C3F84CB088F82593C8F88471F2
:100D6000C8F80470DEF81C20DFF8B0B11B65324310
:100D7000CEF81C20DBF808E0594A5A674EEA060E06
:100D80004FF08042CBF808E0DFF894C15548564D4B
:100D9000DFF890A1DFF890914FF0FF3E41F61F4B36
:100DA000C2F828B0C2F82CE04FF0800B9461546375
:100DB000D4605460566116604FF0805288F81CB3BE
:100DC000C8F88021C8F80020CCF80840DCF80C8076
:100DD000AC604FF6FF0208EA02021043CCF80C00A8
:100DE000DAF80C204148986742F08073CAF80C305A
:100DF000D9F800306D6043EA060A05F11C080022AC
:100E000000236846C9F800A08CF81F108CF82270E7
:100E10002D602D61CDE90423C5F824E0CDF800E074
:100E2000C5F81C80C5F820806D61AC622C67019408
:100E300002940394FFF7D4FA6846FFF7B1FB2C4BFA
:100E40002C4802992C4A296703F1100E6969DFF8D2
:100E5000DC90DFF8DCC0C3F810E020F0070A402087
:100E600022F00708C3F814E005F13002A863A86671
:100E7000DFF8C0B085F84D4005F1580005F1540E7B
:100E80006C662C6685F84E60AC642D6469649C6168
:100E9000C9F800A00A619C60DC60C3F800B06A6118
:100EA000AA6185F84C6047E00010024000700040E5
:100EB0000000014000040048040800200008004829
:100EC000000C004800100048001400481505555556
:100ED000C000FFFF400055555055555510120008F1
:100EE000003801400003FA05A8080020005125023F
:100EF00088080020FF09002000A0002000FCC03C62
:100F0000541115640000505500A8802A5555550508
:100F10001555150100E100E061030008002004E020
:100F200000ED00E0F0ED00E0001000E0800800209F
:100F30000008002021030008C5F854E0A865E86512
:100F4000CCF800804FF0020984F3118862B6AB69D7
:100F5000304A9A6187F31188AB69C5F88060996857
:100F60006F69DFF8B880DFF8B8C0C5F8304105F127
:100F7000780205F1A00005F5967A05F19C0E85F83A
:100F8000949085F89540C5F8B060C5F8AC40C5F8B8
:100F9000A84085F89660C5F89040C5F88850C5F817
:100FA00084A0C5F82C81C5F84CC1C5F88C703A6195
:100FB0006A61C5F89840C5F89CE0C5F8A000C5F87E
:100FC000A40029B385F894402B461B689968002932
:100FD000FBD15868E867AB6702605A6081F31188FB
:100FE0000D4BC5F890304FF40060FFF701FA4FF455
:100FF0008050FFF7FDF94FF40050FFF7F9F94FF477
:101000008040FFF7F5F94FF40040FFF7F1F9FEE7F4
:101010001977FEE7F0110008B0120008110300086C
:10102000F1020008AFF30080AFF30080AFF300805F
:1010300024490B6843F001030B600B68214A9807B1
:10104000FBD5536823F00303536053685360114684
:101050004B681C4A13F00C03FAD1116801F0F90136
:1010600011605360136843F4A0231360136815499B
:101070009B03FBD54B6A43F001034B624B6A114A59
:101080009807FBD5104B53604FF404513023D162C5
:101090001363136843F080731360136809499B015D
:1010A000FBD50A4B12221A604B6843F002034B60D7
:1010B0004B68044A03F00C03082BF9D1136B13633C
:1010C000704700BF0010024000241D0000200240B5
:1010D00038B52022034682F311880E4A9469606A6B
:1010E000236204F12405A84206D003686362FFF777
:1010F0007FFA606AA842F8D1637F9B0704D16369D5
:1011000022691A61226953610F20BDE83840FFF758
:101110008FBB00BFA8080020AFF30080AFF30080B2
:101120000D4A106870B403689569136001260021A8
:10113000AC685A6006779061297700E01B689A686E
:10114000A242FBD85A686A602B60294615605D6030
:1011500070BCFFF7C5B800BFA8080020AFF300803F
:10116000F0B4134E002506F17007A6F110011AC95C
:10117000A3420DD204391A4651F8040F42F8040B69
:10118000A242F9D3DA43144424F003040434234480
:1011900056F8042C934203D243F8045B9342FBD3EA
:1011A000BE4206F1100301D21E46DEE7F0BC7047D6
:1011B00040120008AFF30080AFF30080AFF300806F
:1011C000FEE700BFAFF30080AFF30080AFF3008015
:1011D000704700BFAFF30080AFF30080AFF3008033
:1011E000704700BFAFF30080AFF30080AFF3008023
:1011F0006D61696E00168018040440080C10141804
:10120000001C1D1E00000000000000000000000087
:10121000A10B0008710A0008F10A0008D1090008B2
:10122000E10A0008C1090008910B0008610A0008E2
:10123000B8120008F8090020F8090020F809002079
:10124000B8120008000000000000000000000000CC
:10125000B8120008000000000000000000000000BC
:10126000B8120008000000000000000000000000AC
:10127000B81200080000001000000010000000106C
:10128000B81200080000000000000000000000008C
:10129000B81200080000000000000000000000007C
:1012A000B81200080000000000000000000000006C
:0812B00069646C650000000098
:0400000508000201EC
:00000001FF
